:020000040800F2
:1000000000800020F52D0008B90F0008BD0F000882
:1000100000000000000000000000000000000000E0
:10002000000000000000000000000000C10F0008F8
:100030000000000000000000C50F0008C90F000804
:10004000452E000800000000452E0008452E00083F
:10005000452E0008452E0008452E0008452E0008B4
:1000600000000000452E0008D10F0008E90F00082D
:10007000452E0008452E0008452E0008000000000F
:10008000452E0008452E0008452E0008F90F0008EF
:10009000452E0008452E0008452E0008452E000874
:1000A000452E000809100008452E0008452E0008BE
:0C00B000452E0008452E0008000000004E
:1000BC0010B5064C2378002B07D1054B002B02D032
:1000CC00044800E000BF0123237010BD0400002091
:1000DC0000000000A02E0008044B10B5002B03D02C
:1000EC000349044800E000BF10BDC04600000000FA
:1000FC0008000020A02E0008002243088B4274D375
:10010C0003098B425FD3030A8B4244D3030B8B420C
:10011C0028D3030C8B420DD3FF22090212BA030C15
:10012C008B4202D31212090265D0030B8B4219D3F6
:10013C0000E0090AC30B8B4201D3CB03C01A524116
:10014C00830B8B4201D38B03C01A5241430B8B425E
:10015C0001D34B03C01A5241030B8B4201D30B0347
:10016C00C01A5241C30A8B4201D3CB02C01A52416E
:10017C00830A8B4201D38B02C01A5241430A8B4231
:10018C0001D34B02C01A5241030A8B4201D30B021A
:10019C00C01A5241CDD2C3098B4201D3CB01C01A34
:1001AC00524183098B4201D38B01C01A524143093E
:1001BC008B4201D34B01C01A524103098B4201D32C
:1001CC000B01C01A5241C3088B4201D3CB00C01A99
:1001DC00524183088B4201D38B00C01A5241430811
:1001EC008B4201D34B00C01A5241411A00D2014636
:1001FC00524110467047FFE701B5002000F006F8A9
:10020C0002BDC0460029F7D076E770477047C0465C
:10021C0030B595B03022002108A802F033FE102230
:10022C000021684602F02EFE1022002104A802F0E4
:10023C0029FE02F09FFD1821184A0024136A02259A
:10024C000B4313620D2308930C3B09930A930F93F2
:10025C0080235B021193802308A85B0312931095F3
:10026C00139401F081FF0723012168460093019547
:10027C000294039402F00AFA094B04A80493102385
:10028C000793F0330593069402F0BEFA8021002206
:10029C00C904002002F0A4F915B030BD00100240D2
:1002AC002100010070B502F055FBFFF7B1FF00F023
:1002BC002FF800F089F800F0A7F800F081F900F0B1
:1002CC0065FB00F0FBFB00F015FA00F073FC00F08E
:1002DC00F5FC00F04FFD00F0A9FD00F0C9FD00F0A9
:1002EC002DF900F043F9074C0821200001F0DEF94C
:1002FC00054D23680C21DD63200001F0D7F923683C
:10030C001D64FEE748020020881300007047C046B9
:10031C00F0B5C64600B58AB01422002105A802F03B
:10032C00B1FD8020254B000359698024014359619C
:10033C005A69E027024080200192019A5969C00352
:10034C00014359615A69A401024080200292029A29
:10035C00596980020143596180215A69C9020240DE
:10036C000392039A5A69164D0A435A615B697F01DD
:10037C000B400493049B134B210018000022984659
:10038C0002F0F6FB00223900280002F0F1FB0126F6
:10039C000594002405A9404606960794089402F09B
:1003AC00F7FA05A92800059706960794089402F019
:1003BC00EFFA0AB004BC9046F0BDC04600100240F3
:1003CC00000800480004004801230E4A00B551699A
:1003DC0083B01943516152690021134001930022EB
:1003EC000A20019B02F074FC0A2002F09DFC002202
:1003FC0000210B2002F06CFC0B2002F095FC03B0EA
:10040C0000BDC0460010024010B5194B194C01221A
:10041C002360194B200063600023E260A36023611A
:10042C006361A361E361236200F008FE00280CD134
:10043C000021200000F05AFE00280ED100212000DF
:10044C0000F07AFE002810D110BDFFF75FFF0021ED
:10045C00200000F04BFE0028F0D0FFF757FF0021E2
:10046C00200000F069FE0028EED0FFF74FFFEBE70D
:10047C0000540040200000201A09102030B5040060
:10048C0089B01422002103A802F0FCFC244B226842
:10049C009A4201D009B030BD8021224DC9026A694F
:1004AC0021480A436A616B6903220B400193019B4B
:1004BC00C0239B000393122303A90493113B0593C0
:1004CC000692079302F064FA8021EA6989030A43D1
:1004DC00EA61EB69154D0B400293029B144B802291
:1004EC002B600023EA602800603A6B60AB602B61E4
:1004FC006B61AA61EB6102F041FB00280DD1A823CE
:10050C000C4A0D48D1580140D1508021D058890057
:10051C000143D150E5636C62BCE7FFF7F7FEEEE7F1
:10052C000054004000100240000400486C00002001
:10053C003000024000000240FFF0FFFF0848094B6A
:10054C0010B5036000234360074BC360836000F069
:10055C0021FE002800D110BDFFF7D8FEFBE7C046F6
:10056C00B000002000300040FF0F00000A480B4B89
:10057C007F2210B503600023826080324360C2602A
:10058C0003614361836100F06DFE002800D110BD52
:10059C00FFF7BCFEFBE7C046C0000020002800406F
:1005AC00054B02689A4200D070478023034A1B0215
:1005BC00116A0B431362F7E7002800400010024059
:1005CC00F0220D480D4B120110B50360C2600023E0
:1005DC00072243608360036143618361036243626A
:1005EC008362C2620363436300F08EFE002800D175
:1005FC0010BDFFF78BFEFBE7E00000200030014050
:10060C0070B5040088B01422002103A802F03AFC53
:10061C00324B22689A4201D008B070BD8020304B1A
:10062C00400199690226014399619A6903250240A8
:10063C0080200092009A59698002014359618021FF
:10064C005A69C90202400192019A5A6990200A43E0
:10065C005A615B69C0050B400293029B802303A97E
:10066C001B0203930496069502F092F93823049624
:10067C0000261C4803A9039306950596079602F0DD
:10068C0087F9194D194B28002B608023EB608033C0
:10069C002B618023DB006B6120236E60AE60AB614D
:1006AC00EE6102F06BFA002814D1A823F020104A56
:1006BC00D1588143D150D158C0380143D15017384B
:1006CC00A565002200216C6202F002FB192002F0E9
:1006DC002BFBA1E7FFF71AFEE7E7C046003001400D
:1006EC000010024000040048440100201C0002409D
:1006FC000000024010B584B010220021684602F0C0
:10070C00C1FB184C184B194A236002236360002369
:10071C002000A360E2602361A36101F09BF9002833
:10072C0013D1200001F0CAF9002815D101220023B1
:10073C00019269460022200000930293039301F07A
:10074C00A7FA00280BD104B010BDFFF7DFFD200085
:10075C0001F0B4F90028E9D0FFF7D8FDE6E7FFF780
:10076C00D5FDF0E7880200200020004080BB00008F
:10077C0010B504008CB01422002107A802F082FBF3
:10078C002368364A934224D0354A934216D0354AD0
:10079C0093423FD0344A934231D0344A934223D0CF
:1007AC00334A934213D18020324AC00291690143EB
:1007BC009161936903400693069B08E002232D4A3E
:1007CC00D1691943D161D26913400193019B0CB0DB
:1007DC0010BD8020274A0001916901439161936902
:1007EC0003400093009BF2E78020224A800291692B
:1007FC0001439161936903400593059BE7E78020D2
:10080C001C4A40029169014391619369034004932E
:10081C00049BDCE78020174B4000D9690143D96168
:10082C008021DA69C90202400292029A5A6912487E
:10083C000A435A615B690B400393039B022307A98C
:10084C000793089302F0A4F800220121132002F070
:10085C003FFA132002F068FAB9E7C046002C0140B9
:10086C0000040040002000400040014000440140D2
:10087C0000480140001002400004004810B504007C
:10088C008AB01422002105A802F0FCFA2368374A2A
:10089C00934223D0364A934230D0364A934241D0C9
:1008AC00354A934204D0354A934251D00AB010BD18
:1008BC008020334A800251690143516153690340DE
:1008CC000393039B402305933E3B069303339020F5
:1008DC0005A9C005099302F05BF8E7E78020284AD8
:1008EC008002516901435161536903400093009B9D
:1008FC00F0231B01059302230693E8E78020204A8E
:10090C000003516901435161536905A903400193E7
:10091C00019BF0239B00059302231A48069302F0D7
:10092C0037F8C3E78020164AC00251690143516170
:10093C00536905A903400293029BC0231B02059334
:10094C00022311480693013B099302F021F8ADE70D
:10095C0080200B4A80025169014351615369034065
:10096C000493049B802305937E3BAEE7002C01404F
:10097C000004004000400140004401400048014098
:10098C0000100240000800480004004810B594B064
:10099C001022002102A802F075FA082200216846F4
:1009AC0002F070FA1C22002106A802F06BFA1C223D
:1009BC0000210DA802F066FA3E4C3F4BFA22236050
:1009CC000E236360002312022000A360E260236107
:1009DC006361A36101F03EF8002850D1802302A985
:1009EC005B012000029300F067FE00285FD120001D
:1009FC0001F04AF8002857D10023694620000093E3
:100A0C00019301F0E9F900284BD1602306930023F0
:100A1C00002206A920000793089309930A930B93CD
:100A2C000C9301F0A5F8002838D1042206A9200067
:100A3C0001F09EF800282ED1082206A9200001F012
:100A4C0097F8002824D10C2206A9200001F090F878
:100A5C0000281AD18022002392010DA920000D93A9
:100A6C000E930F93109311931292139301F0D6F9E6
:100A7C00002807D12000FFF701FF14B010BDFFF7CD
:100A8C0045FCABE7FFF742FCF4E7FFF73FFCE1E77F
:100A9C00FFF73CFCD7E7FFF739FCCDE7FFF736FC57
:100AAC00C3E7FFF733FCB0E7FFF730FCA4E7FFF731
:100ABC002DFC9CE748020020002C014010B58EB0A4
:100ACC001022002103A802F0DDF90822002101A860
:100ADC0002F0D8F91C22002107A802F0D3F9334CFC
:100AEC00334BFA2223600E23636000231202200092
:100AFC00A360E2602361A36100F0ACFF00283DD14C
:100B0C00802303A95B012000039300F0D5FD00288E
:100B1C0049D1200000F0B8FF002841D1002301A9E1
:100B2C0020000193029301F057F9002835D160237E
:100B3C0007930023002207A92000089309930B9325
:100B4C0001F016F8002825D1042207A9200001F095
:100B5C000FF800281BD1082207A9200001F008F883
:100B6C00002811D10C2207A9200001F001F800285F
:100B7C0007D12000FFF782FE0EB010BDFFF7C6FBB9
:100B8C00BEE7FFF7C3FBF4E7FFF7C0FBEAE7FFF7AD
:100B9C00BDFBE0E7FFF7BAFBD6E7FFF7B7FBC6E70D
:100BAC00FFF7B4FBBAE7FFF7B1FBB2E7080200208E
:100BBC000004004010B594B01022002102A802F0ED
:100BCC0061F908220021684602F05CF91C22002120
:100BDC0006A802F057F91C2200210DA802F052F9C8
:100BEC00344C354BFA2223600E236360002312022F
:100BFC002000A360E26023616361A36100F02AFF1F
:100C0C00002842D1802302A95B012000029300F04E
:100C1C0053FD00284BD1200000F036FF002843D1B3
:100C2C000023694620000093019301F0D5F80028B9
:100C3C0037D1602306930023002206A920000793D6
:100C4C00089309930A930B930C9300F091FF0028DF
:100C5C0024D1042206A9200000F08AFF00281AD112
:100C6C008022002392010DA920000D930E930F9367
:100C7C00109311931292139301F0D0F8002807D11E
:100C8C002000FFF7FBFD14B010BDFFF73FFBB9E7E9
:100C9C00FFF73CFBF4E7FFF739FBE1E7FFF736FB27
:100CAC00D7E7FFF733FBC4E7FFF730FBB8E7FFF7F5
:100CBC002DFBB0E7880100200040014010B58EB03C
:100CCC001C220021684602F0DDF81C22002107A836
:100CDC0002F0D8F8254C264BFA2223600E236360D1
:100CEC00002312022000A360E26023616361A36110
:100CFC0000F0B0FE002829D1200000F0C5FE00282D
:100D0C002BD160230093002300226946200001931D
:100D1C000293039304930593069300F029FF002894
:100D2C0021D180220023920107A920000793089368
:100D3C0009930A930B930C920D9301F06FF8002812
:100D4C000ED12000FFF79AFD0EB010BDFFF7DEFAB2
:100D5C00200000F099FE0028D3D0FFF7D7FAD0E797
:100D6C00FFF7D4FAEDE7FFF7D1FADAE7C802002073
:100D7C000044014010B58EB01C220021684602F0E0
:100D8C0081F81C22002107A802F07CF8254C264B88
:100D9C00FA2223600E236360002312022000A3605A
:100DAC00E26023616361A36100F054FE002829D145
:100DBC00200000F069FE00282BD160230093002353
:100DCC000022694620000193029303930493059338
:100DDC00069300F0CDFE002821D180220023920141
:100DEC0007A920000793089309930A930B930C927D
:100DFC000D9301F013F800280ED12000FFF73EFDF3
:100E0C000EB010BDFFF782FA200000F03DFE002866
:100E1C00D3D0FFF77BFAD0E7FFF778FAEDE7FFF7CF
:100E2C0075FADAE7C8010020004801400E480F4B64
:100E3C0010B50360E1235B02436000238360C36051
:100E4C0003618361C36103620833436280230C2214
:100E5C001B024261436301F049F9002800D110BD27
:100E6C00FFF754FAFBE7C0464C0300200038014062
:100E7C000C480D4B10B50360E1235B0243600C2260
:100E8C00002342618360C36003618361C3610362B9
:100E9C00436201F02BF9002800D110BDFFF736FAA0
:100EAC00FBE7C046BC0300200044004030B5040002
:100EBC008BB01422002105A801F0E4FF2368334A0B
:100ECC00934204D0324A93421FD00BB030BD8020E5
:100EDC00304BC00199690143996180219A69C9021B
:100EEC0002400192019A5A692B480A435A615B6984
:100EFC000B400293029BC0230593BE3B069305A9AE
:100F0C000133089301F044FDDFE78022214B92026C
:100F1C00D96990201143D961D969C0051140039159
:100F2C0003995969114359615B6905A91A400492E7
:100F3C00049B0C2305930A3B069301330893023B55
:100F4C00099301F025FD154D154B80222B600023D4
:100F5C00EA602800603A6B60AB602B616B61AA6140
:100F6C00EB6101F00BFE00280DD1A8230D4A0E48B1
:100F7C00D1580140D1509021D05809030143D15090
:100F8C0065666C62A1E7FFF7C1F9EEE70038014036
:100F9C0000440040001002400004004808030020F8
:100FAC005800024000000240FFFFF0FF7047C046AF
:100FBC00FEE7C0467047C0467047C04610B501F00A
:100FCC00D9FC10BD10B5034801F034FE024801F005
:100FDC0031FE10BD440100206C00002010B5024809
:100FEC0001F028FE10BDC0460803002010B50248D1
:100FFC0000F032FC10BDC0468802002010B502483B
:10100C0000F0F2F910BDC046E000002001220A4BAE
:10101C0082B099691143996199690A4080210092C3
:10102C00009ADA6949050A43DA61DB690B400193DE
:10103C00019B02B07047C0460010024010B5041E60
:10104C004CD04123C35CDBB2002B42D04123242281
:10105C000121E2542368A0681A688A431A60616807
:10106C001F4A0A401A619A681E490A409A60E2684F
:10107C00012A29D08421090201439960022A02D154
:10108C00802212015A605968174A00200A435A609C
:10109C00DA6814490A40DA60616922690A43A16975
:1010AC0009020A43DA60216AE2690A4301211A60E3
:1010BC001A680A431A60002341221F316364A15449
:1010CC0001322363A35410BD8021090201439960AE
:1010DC00D9E740228354FFF7D1F9B7E70120F2E7B3
:1010EC00FFFFFFF0FF7FFFFF00800002F0B54126FD
:1010FC00825DD2B2202A1BD14027C35D012B17D0B1
:10110C0001242423A446835503681D68A5431D6050
:10111C001D68084C25401D601C680C431C6064460F
:10112C0019682143196000238255C3550020F0BD76
:10113C000220FCE7FFEFFFFFF0B5CE464746412407
:10114C0080B5035DDBB2202B1FD14026825D012AC6
:10115C001BD02422012702550268B94615680902E2
:10116C00BD4315601568A8464746094D2F404D46AE
:10117C0039431160116829431160035500238355CD
:10118C0000200CBC90469946F0BD0220F9E7C04601
:10119C00FFF0FFFF70B5041E1ED00368114A1A60E1
:1011AC00114A1A6042685A6082689A6001F0EAFB40
:1011BC00050004E001F0E6FB401B27280AD8236851
:1011CC00DA68002AF6D11969E268914206D000204B
:1011DC001A6170BD0320FCE70120FAE7034A0020E6
:1011EC001A60F6E7CCCC000055550000AAAA000006
:1011FC00A0210268F8B5D36804008B43D36001F0DA
:10120C00C1FBFA2607002025B60004E001F0BAFB6A
:10121C00C01BB04205D82368DB681D42F6D0002005
:10122C00F8BD0320FCE7C046F8B503680400DA6893
:10123C00520601D50020F8BD01225242DA6001F0BD
:10124C00A1FBFA2607004025B60004E001F09AFB4A
:10125C00C01BB04204D82368DB681D42F6D0E9E716
:10126C000320E8E770B5041E48D0437FDBB2002BA7
:10127C0040D00223CA226377236820005A62773A4F
:10128C005A62FFF7D1FF2368051E2DD19A681C49BD
:10129C0020690A409A606268996802436069024357
:1012AC000A439A60E2681A61A268196912040A4337
:1012BC0080211A61DA688A43DA609A6892060DD541
:1012CC001A6C10490A401A641A6CA1690A431A6410
:1012DC00FF225A6201236377280070BD2000FFF7BC
:1012EC0087FF23680028EBD0FF225A6204230125D4
:1012FC006377F1E70377FFF753F9BAE70125EBE7DB
:10130C00BFFF8FFFFFFFFBFFF8B5041E65D0002366
:10131C0083625D33C35CDBB2002B59D05D230222A8
:10132C004021E2542268E66813688B431360E02383
:10133C00216BDB009E422ED9F0231B019E4234D13F
:10134C00A76A002936D00021A5686368A0692B43E1
:10135C0025692B4365692B43E5692B43256A2B4390
:10136C008025AD0005402B433B431360636A656BDE
:10137C0033432B430425000C284003430B43536099
:10138C00D369174900200B40D36100230122236647
:10139C005D33E254F8BD9E4210D00023A3620029B5
:1013AC0010D0802100274901CEE700230027A3623B
:1013BC000029C8D1022300212363C5E7A76A0029AD
:1013CC0003D1390001230F00236380214901BBE7BE
:1013DC005C228354FFF714F9A0E70120DAE7C0463A
:1013EC00FFF7FFFF7047C046412230B5016804008B
:1013FC0048688B6885B01A40012A54D09A0701D5E9
:10140C00020656D4B022520013424AD0820648D566
:10141C005A060ED55D22A25C032A52D00425226EF8
:10142C002A43226600220092CA6800928A680092BF
:10143C00009A9A060CD50125226E2A4322660022B8
:10144C0002928A683F3502920A68AA430A60029A9D
:10145C00DB0508D50822236E134323660023039370
:10146C008B680393039B236E002B1AD0E0224B68EE
:10147C0093434B605D23DF3AE2545A3B03421CD04A
:10148C004A68A06D9A434A60002803D0114B43630D
:10149C0001F0ACFB606D002803D00E4B436301F0F0
:1014AC00A5FB05B030BD4206A8D5E36C20009847DB
:1014BC00F7E7236D20009847F3E72000FFF792FF32
:1014CC00EFE700230193CB6801938B680193019B99
:1014DC00E7E7C046E51400080023462210B5406A31
:1014EC008352C387FFF77EFF10BDC046012270B543
:1014FC007325036A93430362036A42688469AC43AD
:10150C000D682C430225AB438D682B430E4DA8422E
:10151C0008D00E4DA84205D00D4DA84202D00D4D5D
:10152C00A8420BD10825AB43CD688E692B4304250B
:10153C00AB43094D2A404D6935432A4342604A6802
:10154C0084614263036270BD002C01400040014085
:10155C000044014000480140FFFCFFFF70B57324BC
:10156C00036A174A13400362036A4268C569A543BC
:10157C000C682543134C23408C6824022343124CE3
:10158C00A04215D0114CA04205D0114CA04202D063
:10159C00104CA04206D1104C4E6914408A6932435B
:1015AC001201224342604A68C561C263036270BD86
:1015BC000A4C1C40CB681B022343094C2340EAE72E
:1015CC00FFFEFFFFFFFDFFFF002C0140004001402C
:1015DC000044014000480140FFCFFFFFFFF7FFFF31
:1015EC00FFFBFFFF036A144A30B513400362026A23
:1015FC00124D4368C4692C400D682D022C43104DCC
:10160C0015408A6812032A430E4DA84208D00E4D8D
:10161C00A84205D00D4DA84202D00D4DA84204D1D0
:10162C000C4D2B404D69AD012B4343604B68C4619D
:10163C000364026230BDC046FFEFFFFFFF8CFFFF6B
:10164C00FFDFFFFF002C014000400140004401403F
:10165C0000480140FFBFFFFF01228A400368196A5E
:10166C0091431962196A0A431A620B4A934208D0D1
:10167C000A4A934205D00A4A934202D0094A93423D
:10168C0004D18022596C12020A435A6401211A684F
:10169C0000200A431A607047002C014000400140B2
:1016AC0000440140004801407047C04610B5FFF7A8
:1016BC00D3FF10BD7047C0463C2370B5C25C012AF5
:1016CC0000D189E001240222C4540133C2540268BF
:1016DC00594D93682B4093600B68402B00D17DE0F3
:1016EC0040D9702B00D190E023D8502B5DD0602BCB
:1016FC0017D11025146A4B68AC43C96814629569FC
:10170C004E4E090335402943A025146A916170217E
:10171C00AC431B012343136293688B4309390B437E
:10172C0093603D230122C2540022013BC25400208D
:10173C0070BD80246401A34232D08024A401A34252
:10174C00EFD193683E4C4D681C408B68C9682B43A5
:10175C0009020B432343936080239168DB010B4305
:10176C009360DEE7102B60D00AD9202B11D0302BE0
:10177C00D7D1702193688B4339390B439360D0E7F1
:10178C00002BCED1702193688B4369390B43936046
:10179C00C7E7702193688B4349390B439360C0E7CB
:1017AC00072193688B439360BBE74D68CB68116A44
:1017BC00166A1B01A6431662F0269469B4432343B0
:1017CC000A24A1430D4370219361156293688B43E6
:1017DC0019390B439360A4E70220A9E74D68CB6845
:1017EC00116A166A1B01A6431662F0269469B4436B
:1017FC0023430A24A1430D4370219361156293681E
:10180C008B4329390B4393608BE793680C4C4D68E1
:10181C001C408B68C9682B4309020B437721234377
:10182C00936093680B4393607BE7702193688B43C1
:10183C0059390B43936074E78800FFFFFF0FFFFFDC
:10184C00FF00FFFF7047C0467047C0467047C04658
:10185C007047C0467047C0460222036810B519692C
:10186C0004000A4202D0D9680A4265D104221969DF
:10187C000A4202D0D9680A424BD1082219690A429D
:10188C0002D0D9680A4233D1102219690A4202D017
:10189C00D9680A421CD1012219690A4202D0D968BE
:1018AC000A425CD1802219690A4202D0D9680A42E4
:1018BC005CD1402219690A4202D0D9680A425DD132
:1018CC00202219690A4202D0D9680A4241D110BDBE
:1018DC00213A1A6119322277DA69C0239B00200061
:1018EC001A425ED0FFF7B2FF002323772368D2E7BA
:1018FC00113A1A61DB690D32227720009B074DD11A
:10190C00FFF7A2FF2000FFF7A3FF00232377236834
:10191C00BAE7093A1A61073222779A69C0239B0009
:10192C0020001A4237D1FFF78FFF2000FFF790FFFE
:10193C00002323772368A0E7053A1A619B690432D8
:10194C0002779B0721D0FFF781FF002323772368C1
:10195C008CE7413A1A61200000F09CFAB7E7033A91
:10196C001A612000FFF76EFF23689BE7023AFF3AEB
:10197C001A61200000F090FA23689AE7813A1A6104
:10198C002000FFF767FF23689AE7FFF75DFF200051
:10199C00FFF75EFFD9E7FFF759FFC9E7FFF756FFDF
:1019AC00B3E7FFF751FF2000FFF752FF9CE7C0465B
:1019BC00214A70B503684E698D680C6890422AD034
:1019CC001E4A904216D01E4A904217D01D4A904291
:1019DC0025D01D4A904222D01C4A904212D11C4A5A
:1019EC001A40CB681A4380239A4332430260C56283
:1019FC0084621EE0702293434A681343144A1340D6
:101A0C00CA6813438022934333430360C5628462E4
:101A1C000123436170BD702293434A6813430C4AFF
:101A2C001340CA6813438022934333430360C56257
:101A3C0084620B690363EBE7002C01400004004057
:101A4C00002000400040014000440140004801409B
:101A5C00FFFCFFFF70B5041E14D03D23C35CDBB24A
:101A6C00002B0AD002233D252100635501C9FFF745
:101A7C009FFF01230020635570BD3C228354FEF769
:101A8C0077FEEFE70120F7E770B5041E14D03D2375
:101A9C00C35CDBB2002B0AD002233D252100635529
:101AAC0001C9FFF785FF01230020635570BD3C225F
:101ABC008354FFF7F9FDEFE70120F7E770B5041E3B
:101ACC0014D03D23C35CDBB2002B0AD002233D258E
:101ADC002100635501C9FFF76BFF012300206355FB
:101AEC0070BD3C228354FFF7E5FDEFE70120F7E7DB
:101AFC001022036A70B593430362026A164C436862
:101B0C00856925400C68240225432024A2438C6857
:101B1C0024012243114CA04215D0114CA04205D0F7
:101B2C00104CA04202D0104CA04206D10F4C4E6972
:101B3C001C408B6933439B00234343604B68856196
:101B4C008363026270BD8024A2431400CA68120130
:101B5C0022434024A243E9E7FF8CFFFF002C014005
:101B6C00004001400044014000480140FFF3FFFFEA
:101B7C003C2370B51500C25C04000E00012A5BD03A
:101B8C000122C25401330132C254042D31D01DD96B
:101B9C00082D41D00C2D11D10068FFF723FD8022B8
:101BAC0023681201D9690A43DA61DA6923490A40C8
:101BBC00DA613269D96912020A43DA613D230122E2
:101BCC00E25400220020013BE25470BD002DF5D1FF
:101BDC000068FFF78BFC082123689A690A439A6115
:101BEC009A6904398A439A619A6931690A439A61FC
:101BFC00E4E70068FFF77CFF8022236812019969F3
:101C0C000A439A619A690D490A409A613269996945
:101C1C0012020A439A61D1E70068FFF79FFC042186
:101C2C002368DA691543DD61DA698A43DA61DA69B6
:101C3C0031690A43DA61C1E70220C6E7FFFBFFFF07
:101C4C00F0B50127056ABD4305620E4D8469066A2D
:101C5C00A84207D00C4DA84204D00C4DA84201D08C
:101C6C003C4302E00325AC431443F0220A25944381
:101C7C001A01FF23AE4313400D4035431C438461CE
:101C8C000562F0BD002C0140000400400040014002
:101C9C00F0B5C6463C2300B50E00C15C040001291A
:101CAC0000D189E00121C15401330131C15475685F
:101CBC0000683168F368002A30D0B668B046042A50
:101CCC0039D0082A57D0026A3C4F3D4E3A40026246
:101CDC00C2692D02324015433A4A076A15403A4A06
:101CEC001B071740A0220903120211401B0C2B43A7
:101CFC003943C3610162C369344A13404246C3612C
:101D0C00C36916021E43C6613D230122E254002220
:101D1C000020013BE25404BC9046F0BD2A00FFF7C2
:101D2C008FFF0C2123689A698A439A619A69B1687A
:101D3C000A439A61E8E71027026A214EBA4302620D
:101D4C0082692D02324015431E4A076A1540A022B3
:101D5C001B07090197431B0C0A402B433A43836131
:101D6C0002628369194A13404246836183691602F1
:101D7C001E438661C8E70326026A154F1B013A40D1
:101D8C000262C269076AB2432A43F025AA430F359F
:101D9C002B401A430F4BC2611F40A0230C22464616
:101DAC001B010902194039430162C3699343C361A2
:101DBC00C3691E43C661A7E70220ACE7FFEFFFFF34
:101DCC00FFFCFFFFFF0FFFFFFF5FFFFFFFF3FFFFB6
:101DDC00FFFEFFFFFFF5FFFF70B53C24035D012BF9
:101DEC0019D03D2502237026435503685A68B24327
:101DFC005A605A680E684968324380265A609A685D
:101E0C00B2439A609A680A439A60012343550023AF
:101E1C000355002070BD0220FCE7C0463C2230B5C3
:101E2C00835C012B26D03D240223CD680355124B35
:101E3C002B408D682B43114D2B404D682B43104D7F
:101E4C002B400D682B430F4D2B400D692B430E4D32
:101E5C002B404D6989692B430C4D2B400C4D0B438A
:101E6C002B400B4301684B6401230355002383541F
:101E7C00002030BD0220FCE7FFFCFFFFFFFBFFFF53
:101E8C00FFF7FFFFFFEFFFFFFFDFFFFFFFBFFFFFCE
:101E9C00FF7FFFFF7047C0467047C04670B5050016
:101EAC000468C16983680069226803436869034355
:101EBC004D480B4302401343236063684B4A286A26
:101ECC001340EA6813436360AB69A2680343484854
:101EDC0002401343A360474B9C421FD0464B9C428D
:101EEC0011D0464B9C420ED0454B9C420BD0454BDF
:101EFC009C4208D0444B9C4205D080231B02994243
:101F0C0044D0012027E080231B02994246D000F0E8
:101F1C006BFC69682C684B08181816E03B4B1A6B65
:101F2C00032313403A4AD35C80221202914213D00D
:101F3C00022B54D02ED9042B43D0082BE1D1802373
:101F4C0069681B0248089C466044FEF7D5F80004FB
:101F5C00000CE060002070BD022B3CD014D9042B87
:101F6C0036D0082B12D1802369685B0248089C4646
:101F7C006044FEF7C1F80F2203075B0F9043034345
:101F8C009BB20020E360E6E7002B07D00023012082
:101F9C00E360E0E7002BBAD00120DCE700F024FC82
:101FAC006B6840005B08C0186968FEF7A5F80F2243
:101FBC0003075B0F904303432C689BB20020E36044
:101FCC00C9E700F037FB69682C684B081818BCE7A8
:101FDC0000F030FBE4E769680E4B4808C7E7696816
:101FEC000D4B4808AFE7C046F369FFEFFFCFFFFF8B
:101FFC00FFF4FFFF0038014000440040004800405F
:10200C00004C004000500040001401400010024001
:10201C00D82E00080024F40000127A00436A30B570
:10202C00DA0706D50168284C4A682240846A2243A4
:10203C004A609A0706D50168244C4A682240C46A53
:10204C0022434A605A0706D50168214C4A6822404F
:10205C00046B22434A601A0706D501681D4C4A6876
:10206C002240446B22434A60DA0606D501681A4CBA
:10207C008A682240846B22438A609A0606D50168DE
:10208C00164C8A682240C46B22438A605A060AD5D1
:10209C000168134D4A68046C2A4022434A6080222E
:1020AC005203944209D01B0606D502680D495368A9
:1020BC000B40816C0B43536030BD4A680A4C224084
:1020CC00446C22434A60EEE7FFFFFDFFFFFFFEFF7B
:1020DC00FFFFFBFFFF7FFFFFFFEFFFFFFFDFFFFFB8
:1020EC00FFFFEFFFFFFFF7FFFFFF9FFF10B5041E81
:1020FC0030D06923C35CDBB2002B2DD069232422A2
:10210C000121E2542268200013688B431360FFF70F
:10211C00C5FE01281ED0636A002B17D12368114914
:10212C005A6800200A4008215A609A688A439A60CB
:10213C001A6807390A431A60202200236831E366C3
:10214C006254013162544832A35410BD2000FFF791
:10215C0065FFE3E70120F8E768228354FEF7A6FE4B
:10216C00CCE7C046FFF7FFFFF0B5CE46474680B53B
:10217C00036883B00400DA072FD50C21C3484268EA
:10218C000A40042A00D1FCE042681140082900D121
:10219C00EEE06368012B00D12DE1002B00D143E16F
:1021AC00052B00D109E2B94BB9491A680A401A60EB
:1021BC001A68B8490A401A6000F0E4FB8025070051
:1021CC00B24EAD0205E000F0DDFBC01B642800D967
:1021DC0028E133682B42F6D023689A0729D50C22C4
:1021EC00AA494868024200D1DFE048680240082A48
:1021FC0000D1D1E0E368A54D002B00D154E10122C0
:10220C002B68022613432B6000F0BCFB070005E093
:10221C0000F0B8FBC01B022800D903E12B681E425A
:10222C00F6D0F8212A6823698A43DB0013432B601C
:10223C0023681A0717D5E369944D002B00D1C7E02A
:10224C0001226B6A022613436B6200F09BFB0700B2
:10225C0005E000F097FBC01B022800D9E2E06B6A96
:10226C001E42F6D023685A0748D580220020874B9F
:10227C005205D9698046114208D1D9691143D961F7
:10228C00DB691A400192019B012398468026824FFC
:10229C0076003B68334200D1B4E0A368012B0FD029
:1022AC00002B00D1D9E0052B00D127E10121774B80
:1022BC001A6A8A431A621A6A03318A431A6203E061
:1022CC0072490A6A13430B6200F05CFB6F4F814644
:1022DC000226724D06E000F055FB4B46C01AA84290
:1022EC0000D99FE03B6A1E42F5D042462368012A82
:1022FC0004D166496A48CA690240CA61DB0612D534
:10230C006369012B00D13AE1053300D0DFE00421F1
:10231C00F8205E4A536B8B435363516BA369814323
:10232C00DB000B435363236A002B1BD00C22574D4D
:10233C0069680A40082A2DD0022B00D1E8E02B68EE
:10234C00584A2C0013402B6000F01CFB8025060023
:10235C00AD0404E000F016FB801B022862D8236851
:10236C002B42F7D1002003B00CBC90469946F0BD2F
:10237C00C021426849020A40802149028A4200D0A9
:10238C0007E7424A1268920300D426E76268002AE3
:10239C0000D022E70120E6E74A68C02149020A4042
:1023AC00802109028A4200D024E7384A1268920739
:1023BC0002D5E268012AEDD1F8253448226901687A
:1023CC00D200A9430A4302601A0700D44BE732E754
:1023DC0001226B6A022693436B6200F0D3FA07006A
:1023EC0004E000F0CFFAC01B02281BD86B6A1E4217
:1023FC00F7D1236837E78023244A5B0211680B432B
:10240C001360D9E63B6833433B6000F0BBFA050030
:10241C0004E000F0B7FA401B642803D83B68334251
:10242C00F7D03AE703209EE7184D194A2B6880260F
:10243C0013402B602B68174AB60213402B6000F038
:10244C00A1FA070004E000F09DFAC01B6428E9D84B
:10245C002B683342F7D12368BFE601220B4E0227CB
:10246C00336A0E4D93433362336A033293433362C0
:10247C0000F088FA814605E000F084FA4B46C01A59
:10248C00A842CFD8336A1F42F6D12EE70010024083
:10249C00FFFFFEFFFFFFFBFF0070004088130000F2
:1024AC00FFFFFFEFFFFFFFFE01222B680226934385
:1024BC002B6000F067FA070004E000F063FAC01B21
:1024CC000228AFD82B681E42F7D12368B1E604224C
:1024DC00404D02266B6B13436B636B6B033A934358
:1024EC006B6300F04FFA070004E000F04BFAC01BDE
:1024FC00022897D86B6B1E42F7D114E70421354B99
:10250C001A6A0A431A621A6A03390A431A62DBE628
:10251C002B68314A802613402B6000F033FAB60446
:10252C00070005E000F02EFAC01B022800D979E75D
:10253C002B683342F6D10F22EB6A9343E26A1343C2
:10254C00EB62616AA36A6A680B43244980240A40DF
:10255C0013436B6080232A685B0413432B6000F0E9
:10256C0011FA1C4D0600A40405E000F00BFA801BC8
:10257C00022800D956E72B682342F6D0F2E6042154
:10258C00144D02266A6B0A436A636A6B13436B63CE
:10259C0000F0F8F9070005E000F0F4F9C01B022880
:1025AC0000D93FE76B6B1E42F6D0F8216A6BA3692A
:1025BC008A43DB0013436B63B5E68022054BD202E2
:1025CC0019680A431A608022196852020A431A6079
:1025DC00F2E5C04600100240FFFFFFFEFF7FC2FF86
:1025EC00022370B586B00293160001338022049347
:1025FC0000230D00802190200C4C5200039301927B
:10260C000593626989020A4362616369C0050B40E4
:10261C00009301A9009B00F0BBF96168044B1940C1
:10262C0031432943616006B070BDC04600100240C2
:10263C00FFFFFF8070B588B06946114B0A00180087
:10264C0070C870C200681033106004AA100070CB00
:10265C0070C01B680B4C03600C2063681840082882
:10266C0002D0094808B070BDE56A07309B0C0340E6
:10267C002840CC5C115C0448FDF73EFD6043F1E75B
:10268C00B82E00080010024000127A00F8B5CE46B1
:10269C00474601230C004B4980B50A6805001A40D7
:1026AC00A24209D20A689A4322430A600A6813407C
:1026BC00A34201D001204FE02B689A0706D5F020E9
:1026CC0041494A688243A86802434A60DB0724D523
:1026DC003D4B6A681B68012A4ED0022A48D09B07E2
:1026EC00E8D50321384E73688B431343736000F0B5
:1026FC0049F96B680700012B44D0022B52D00C23F4
:10270C009846324B994604E000F03CF9C01B484512
:10271C0036D8424673681A42F6D10121294A136809
:10272C000B40A3421CD82B685B0706D5264A2849C8
:10273C0053680B40E9680B435360FFF77BFF224B58
:10274C00244A5B681B061B0FD35CD840224B1860D5
:10275C00002000F0EDF800200CBC90469946F8BD26
:10276C0013688B43136013681942DCD00120F3E724
:10277C009B01B6D40120EFE79B03B2D40120EBE719
:10278C000320E9E70B339846104B994604E000F020
:10279C00F9F8C01B4845F3D8424673681340042B24
:1027AC00F5D1BAE70A339846084B994604E000F095
:1027BC00E9F8C01B4845E3D8424673681340082B20
:1027CC00F5D1AAE700200240001002408813000057
:1027DC00FFF8FFFFDC2E000800000020014B1868FA
:1027EC007047C04600000020044B054A5B685B053F
:1027FC005B0FD35C034A1068D8407047001002404E
:10280C00EC2E000800000020F0B5CE46474680B5FF
:10281C00036883B00400DA032ED580223E4B5205A8
:10282C00D969002711423FD080263C4D76002B6899
:10283C00334247D0C021384D89002A6A60680A406B
:10284C0011D0014091420ED08022296A2E6A520288
:10285C0032432A622A6A324B324E0B4032402A6291
:10286C002B62CB0746D42C4A2D49136A0B400343E9
:10287C0013622368012F36D0DA0706D503202649C8
:10288C000A6B8243A06802430A6300209B0606D5AC
:10289C001021214A136B8B43E1680B43136303B084
:1028AC000CBC90469946F0BD8026D9691B4D11434E
:1028BC00D961DB6976001A400192019B2B680137C4
:1028CC003342B7D12B6833432B6000F05BF8804662
:1028DC002B683342AED100F055F84346C01A642839
:1028EC00F6D90320DBE7D1690F480140D161DA0743
:1028FC00CBD5C3E700F046F80C4B80460226994630
:10290C0005E000F03FF84346C01A4845E9D82B6A69
:10291C001E42F6D06068A6E700100240007000402E
:10292C00FFFCFFFFFFFFFEFFFFFFFFEF8813000020
:10293C0010B50400FFF752FFFA218900FDF7DCFB0C
:10294C0000F0FCF9012000222100404200F0C0F907
:10295C00002010BD1021064A10B5136800200B434F
:10296C001360FFF7E5FFFEF751FB002010BDC046DA
:10297C0000200240024A1368013313607047C046BE
:10298C002C040020014B18687047C0462C04002012
:10299C00F0B54546DE4657464E46E0B588460968D2
:1029AC0085B0002300297DD06B4A8A4693466B4A3A
:1029BC009446012654469E40344000946ED04246C4
:1029CC00516810220F0097430197022F00D170E03D
:1029DC0002685D0091460322AA404C46D243144043
:1029EC00270003240C40AC40A1463C004F463C431E
:1029FC00019F0460013F012F00D877E04446C66870
:102A0C003240A668AE403243C26080225205114269
:102A1C0044D05A4601245D4603260F2792691E4076
:102A2C002243AA61AA69B60022404D4CB740A14688
:102A3C0090240392039A9A0892004A449568E405FC
:102A4C00BD43A0420ED0474FB84200D17CE0464F68
:102A5C00B84200D17CE0454FB84200D170E0052768
:102A6C00B7403D4395606246009C1268E543CC0339
:102A7C004ED464462A40226062688C034FD464466C
:102A8C002A406260A268CC0250D464462A40A260FC
:102A9C00E268890251D42A406146CA605246013329
:102AAC00DA4086D105B03CBC90469946A246AB466E
:102ABC00F0BD07250F241D40AD00AC40DA08920094
:102ACC008218176AA74344462469AC4025003D434D
:102ADC00156203225D00AA40D24307681740B9462D
:102AEC0003270F40AF404C46274307608768444696
:102AFC001740B946E7684C46AF402743012487602E
:102B0C004768B7430E0926409E403E43466075E732
:102B1C00009C22436446226062688C03AFD5009C03
:102B2C00224364466260A268CC02AED5009C22436C
:102B3C006446A260E2688902ADD500990A43ABE70E
:102B4C000324B44025438DE70124B440254389E791
:102B5C000227B7403D4385E70010024000040140C6
:102B6C00000001400004004800080048000C004828
:102B7C00002A01D0816170478162FCE770B5041EA8
:102B8C002BD02125022343550068154A0368A16800
:102B9C001A4063680B43E1680B4321690B4361697D
:102BAC000B43A1690B43E1690B43134303600D4BCA
:102BBC0014219C466044FDF79FFA0B4B0122E36302
:102BCC000023800020640020A362E362236363631C
:102BDC00A36362551F32A35470BD0120FCE7C046AD
:102BEC000FC0FFFFF8FFFDBF00000240212370B5AE
:102BFC00C25C022A03D01D3B8363012070BD0E24EE
:102C0C000268056C1168A1431160012114688C43A2
:102C1C0014600C00AC40C26B5460C15400222023E1
:102C2C00C254436B002B02D098470020E6E70020EB
:102C3C00E4E7C046F8B504242600036CC56B9E403F
:102C4C002A6801680F6832420DD03C420BD00B68E9
:102C5C009B0602D40B68A3430B60C36A6E60002B07
:102C6C0000D09847F8BD022426009E40324214D072
:102C7C003C4212D00B689B0606D40A220B68934385
:102C8C000B602123093AC254202300226E60C254E7
:102C9C00836A002BE6D09847E4E7082426009E4080
:102CAC003242DFD03C42DDD00A680634A2430A60CF
:102CBC00012211009940212369608263C2540022D1
:102CCC00013BC254036B002BCCD09847CAE7C046DB
:102CDC00FF22032330B51400C5B22B40DB009C400F
:102CEC0089010A40E4439A4000280BDB0C4B800816
:102CFC009C46C023800060449B00C1580C4022437A
:102D0C00C25030BD0F2307492B408C46083B9B0813
:102D1C009B006344D9690C402243DA61F1E7C04659
:102D2C0000E100E000ED00E01F2318401E3B834053
:102D3C00014A13607047C04600E100E00A4A431E96
:102D4C00012093420ED8C021084A09485360036AF7
:102D5C0009061B021B0A0B4303620023002093602D
:102D6C00073313607047C046FFFFFF0010E000E020
:102D7C0000ED00E08023034A5B0011680B431360F5
:102D8C007047C046007000400121114B11481A6871
:102D9C000A431A605A6802405A601A680E48024088
:102DAC001A601A680D4802401A605A680C480240B2
:102DBC000F205A60DA6A8243DA621A6B09480240C1
:102DCC001A635A6B8A435A6300229A607047C04652
:102DDC00001002400CB8FF08FFFFF6FEFFFFFBFFE0
:102DEC00FFFFC0FFECFEFFFF0D4885460D480E4966
:102DFC000E4A002302E0D458C4500433C4188C4249
:102E0C00F9D30B4A0B4C002301E013600432A242AD
:102E1C00FBD3FFF7B9FF00F011F8FDF743FAFEE71B
:102E2C00008000200000002004000020FC2E000880
:102E3C000400002030040020FEE7000070B50026DE
:102E4C000C4D0D4C641BA410A64209D1002600F0B9
:102E5C0021F80A4D0A4C641BA410A64205D170BD82
:102E6C00B300EB5898470136EEE7B300EB589847A0
:102E7C000136F2E7F42E0008F42E0008F42E0008B8
:102E8C00F82E000803001218934200D170471970F5
:102E9C000133F9E7F8B5C046F8BC08BC9E4670474C
:0C2EAC00F8B5C046F8BC08BC9E46704754
:102EB80002030405060708090A0B0C0D0E0F101073
:102EC8000102030405060708090A0B0C0D0E0F1072
:102ED80000040802000000000000000001020304D2
:0C2EE800060708090000000001020304B6
:042EF400E5000008ED
:042EF800BD00000811
:042EFC0000127A0046
:0400000508002DF5CD
:00000001FF
